:100000000C94F2000C940F010C940F010C940F014E
:100010000C940F010C940F010C940F010C940F0120
:100020000C940F010C940F010C940F010C940F0110
:100030000C940F010C940F010C940F010C940F0100
:100040000C940F010C940F010C940F010C940F01F0
:100050000C940F010C940F010C940F010C940F01E0
:100060000C940F010C940F0107634236B79BD8A77D
:100070001A39685618AEBAAB558C1D3CB7CC5763CD
:10008000BD6DEDFD753EF6177231BF000000803F7B
:1000900008000000BE922449123EABAAAA2ABECD97
:1000A000CCCC4C3E00000080BEABAAAAAA3E000009
:1000B0000000BF000000803F000000000008417801
:1000C000D3BB4387D1133D190E3CC3BD4282AD2B38
:1000D0003E68EC8276BED98FE1A93E4C80EFFFBE30
:1000E00001C4FF7F3F000000000000407A10F35A77
:1000F00000A0724E18090010A5D4E80000E8764868
:10010000170000E40B54020000CA9A3B000000E113
:10011000F505000080969800000040420F000000A6
:10012000A08601000000102700000000E803000086
:1001300000006400000000000A0000000000010050
:10014000000000002C76D888DC674F0823DFC1DF71
:10015000AE59E1B1B796E5E3E453C63AE651997674
:1001600096E8E6C28426EB898C9B62ED407C6FFCAE
:10017000EFBC9C9F40F2BAA56FA5F490055A2AF7F0
:100180005C936B6CF9676DC11BFCE0E40D47FEF5F9
:1001900020E6B500D0ED902E030094357705008061
:1001A000841E080000204E0A000000C80C333333C0
:1001B000330F986E12831141EF8D2114893BE65560
:1001C00016CFFEE6DB18D1844B381BF77C1D901D43
:1001D000A4BBE424203284725E228100C9F124ECA5
:1001E000A1E53D2711241FBECFEFD8E0DEBFCDBF74
:1001F00011E0A0E0B1E0E0EDFBE102C005900D925E
:10020000A635B107D9F721E0A6E5B1E001C01D92FE
:10021000AA3EB207E1F70E942F060C94E60D0C945B
:100220000000BF92CF92DF92EF92FF920F931F9345
:10023000CF93DF930F2EF2E6CF2EF1E0DF2EF02DDD
:100240000F2EF8E7EF2EF1E0FF2EF02D0F2EFAEA39
:10025000BF2EF02DC6E5D1E08EEE0E94DE048B2D80
:100260000E94FE040E94F5048FEE0E94DE040E94AC
:10027000100590E0998388830E941B0590E09B8382
:100280008A830E94F5042FE788E391E021508040A3
:100290009040E1F700C00000188100E08A819B8156
:1002A000800F911FF601819391936F01B394B394E2
:1002B000EE15FF0589F6E2E6F1E0868197819093DD
:1002C0006101809360018085918590935F018093A7
:1002D0005E018285938590935D0180935C01FFEFC1
:1002E00022E587E0F15020408040E1F700C00000A7
:1002F000DF91CF911F910F91FF90EF90DF90CF9002
:10030000BF9008952F923F924F925F926F927F928B
:100310008F929F92AF92BF92CF92DF92EF92FF9215
:100320000F931F93CF93DF93CDB7DEB76D970FB6C3
:10033000F894DEBF0FBECDBF3C018EEE0E94DE04FE
:1003400084EF0E94FE048EE20E94FE040E94F504E7
:100350000FEF10E722E0015010402040E1F700C00D
:1003600000008EEE0E94DE0486EF0E94FE040E94D2
:10037000F5048FEE0E94DE040E94100590E0A6E5D1
:10038000B1E08D939C930E941B0590E090935901DE
:10039000809358010E94F504E6E5F1E060817181E7
:1003A00080E090E00E94A00720E030E040E853E4C5
:1003B0000E947C086B017C01609158017091590189
:1003C00080E090E00E94A0079B01AC01C701B6014C
:1003D0000E944A066B017C018EEE0E94DE0484EFCF
:1003E0000E94FE0484E70E94FE040E94F504FFEFD1
:1003F00000E712E0F15000401040E1F700C00000BB
:100400008EEE0E94DE0486EF0E94FE040E94F50438
:100410008FEE0E94DE040E94100590E0A6E5B1E098
:100420008D939C930E94100590E0909359018093C6
:1004300058010E941B0590E090935B0180935A0144
:100440000E94F50460915C0170915D0180E090E094
:100450000E94A0079B01AC01C701B6010E9449069A
:100460006B017C0160915E0170915F0180E090E022
:100470000E94A0079B01AC01C701B6010E947C0845
:1004800020E030E040E058E30E947C086B017C01F2
:1004900002E611E0F80162897389072E000C880BCF
:1004A000990B0E94A20720E030E040E055E40E9452
:1004B0007C084B015C01D80154966D917C91559755
:1004C000072E000C880B990B0E94A207A70196012A
:1004D0000E944A069B01AC01C501B4010E94B60608
:1004E000A70196010E944A066B017C0120E030E0E2
:1004F00040E051E40E944A0620E030E040E85DE33D
:100500000E947C0820E030E040E251E40E94B60600
:100510006D877E878F87988B26E636E646EE5FE30B
:100520000E947C0820E030E040E052E40E944A064D
:100530001B012C0120E030E04AE755E4C701B60179
:100540000E94490669877A878B879C870E94640787
:100550009B01AC010E946E0A0E94A207698B7A8BF4
:100560008B8B9C8BF80164857585072E000C880B9E
:10057000990B0E94A2076B017C0120E030E040E073
:100580005AE369897A898B899C890E947C089B013E
:10059000AC01C701B6010E947C0820E030E040E8D1
:1005A00057E30E947C086B017C01D80114966D9181
:1005B0007C911597072E000C880B990B0E94A207BF
:1005C00029853A854B855C850E947C0820E030E0D7
:1005D00040E059E30E947C089B01AC01C701B601D1
:1005E0000E944A0620E030E040E050E40E944A06C3
:1005F00020E030E040E85EE30E947C0820E030E04C
:1006000040E057E40E944A066B017C016091600162
:100610007091610180E090E00E94A0079B01AC0115
:10062000C701B6010E947C0820E030E040E058E3BA
:100630000E947C086D8B7E8B8F8B988FE6E5F1E0B6
:1006400080809180282D392D40E050E060E070E0FE
:1006500080E090E000E10E94E20AE0905801F09012
:1006600059016701E12CF12C1E2D0D2DFC2CEE24DF
:1006700057016801DD0CAA08BA2C6501A982BA826B
:10068000CB82DC82AE2CBF2CC02ED12EE980FE2C7A
:100690000E2D1E2D0E94190BE0915A01F0915B0165
:1006A0005F01C12CD12CE12CF12C8701BA82CB82C5
:1006B000DC82ED82FE820F831887C12CD12CE12CC5
:1006C000F12C00E010E00E94190B122F3A8F498F95
:1006D000B52FF62FE72F8983892EA0E00E94370BD4
:1006E0005CF4AFE70E94220B122F3A8F498FB52F8F
:1006F000F62FE72F8983892E212F3A8D498D5B2F85
:100700006F2F7E2F8981982D07E00E94FB0A298395
:10071000398F4A8F5B8F862E972E8C8F9D8F60919D
:10072000700170917101072E000C880B990B0E94CB
:10073000A2076B017C0120E030E040E859E36989C1
:100740007A898B899C890E947C089B01AC01C70136
:10075000B6010E947C0820E030E040E05AE30E94AD
:100760007C086B017C016091640170916501072E2A
:10077000000C880B990B0E94A20729853A854B85AE
:100780005C850E947C0820E030E040E05AE30E9453
:100790007C089B01AC01C701B6010E944A066B01AF
:1007A0007C01A2E6B1E06D917C91660F771F660F28
:1007B000771F072E000C880B990B0E94A2079B0144
:1007C000AC01C701B6010E944A069B01AC010E9420
:1007D0004A0620E030E040E050E40E944A0620E073
:1007E00030E040E85EE30E947C080E942D07A22EC4
:1007F000B32EC42ED52EE62EF72E082F192F2981C1
:10080000398D4A8D5B8D682D792D8C8D9D8D0E9443
:100810002E0B0F2EF8EAAF2EF02D0F2EF1E6BF2E85
:10082000F02DC12CD12CE12CF12C00E010E00E9425
:10083000890A2F3FEFEF3E074E07EFE75E0761059E
:1008400071058105910509F074F401E00E94E20A46
:100850000E949A072D893E894F89588D0E94B606BD
:100860006B017C010EC00E949A072D893E894F8939
:10087000588D0E94B6069B01AC010E944A066B018E
:100880007C0120E030E040E85BE3C701B6010E9454
:100890007C089B01AC010E947C0820E030EE4DE317
:1008A00055E40E947C0869837A838B839C8320E0D3
:1008B00038EE45EE55ECC701B6010E947C0820E0F9
:1008C00030E040E857E30E947C084B015C0120E0E7
:1008D00030E040E857E369817A818B819C810E94F6
:1008E0007C089B01AC01C501B4010E944A0620E0CE
:1008F00030EF4CE655E40E944A0620E030E040E844
:100900005DE30E947C08A70196010E944A0620E050
:1009100030E048EC52E40E94B6066B017C0120E016
:1009200030E54DE754E40E94B60621E03EED42E496
:100930005EE30E94E9089B01AC018D859E85AF8531
:10094000B889F30180839183A283B38324823582A3
:1009500046825782C086D186E286F38660E070E0E8
:1009600080E89FE30E94490620E03AE24DE257E426
:100970000E947C08D3011C966D937D938D939C936C
:100980001F976D960FB6F894DEBF0FBECDBFDF91F7
:10099000CF911F910F91FF90EF90DF90CF90BF907C
:1009A000AF909F908F907F906F905F904F903F900F
:1009B0002F90089580E28093B8000895ECEBF0E06A
:1009C000108294EA908390819923ECF79091B9007A
:1009D0008093BB0084E88093BC00ECEBF0E0808166
:1009E0008823ECF78091B900089584E98093BC00D6
:1009F000ECEBF0E0808184FDFDCF08958093BB0097
:100A000084E88093BC00ECEBF0E080818823ECF775
:100A10009091B900987F81E0983209F480E00895C0
:100A200084EC8093BC00ECEBF0E080818823ECF751
:100A30008091BB00089584E88093BC00ECEBF0E06B
:100A400080818823ECF78091BB000895CF93DF93DA
:100A5000EC01AC0120E030E0E0ECF0E066EC70E0AE
:100A60000AC0908195FFFDCFDA018D91AD01DB01C8
:100A70008C932F5F3F4FDE010D900020E9F7119717
:100A8000AC1BBD0B2A173B0760F3DF91CF91089594
:100A90001092C50083E38093C400E2ECF0E0808113
:100AA00086608083E1ECF0E080818869808308952E
:100AB000CF93DF93FC012081222369F0DC011196A2
:100AC000E0ECF0E0C6ECD0E0908195FFFDCF28830C
:100AD0002D912111F9CFE0ECF0E0808185FFFDCF71
:100AE0001092C600DF91CF9108950F931F93CF937B
:100AF000DF9382E891E00E948201C2E8D1E0688140
:100B000079818A819B8102ED11E022E042E00E941E
:100B1000520B6C857D858E859F8502EE11E022E06B
:100B200042E00E94520B6C817D818E819F810AED93
:100B300011E022E042E00E94520B688579858A85A7
:100B40009B8508E711E022E042E00E94520BC2E9D7
:100B5000D1E0DE010D900020E9F7119787E0E1E098
:100B6000F1E001900D928A95E1F762ED71E0CE011E
:100B70000E94720BFE0101900020E9F7319700E21C
:100B80001AE21183008383E490E093838283DE0181
:100B90000D900020E9F7119788E0E0E0F1E0019086
:100BA0000D928A95E1F76AED71E0CE010E94720B19
:100BB000FE0101900020E9F731971183008386E45C
:100BC00090E093838283DE010D900020E9F7119776
:100BD0008BE0E8E0F1E001900D928A95E1F768E79B
:100BE00071E0CE010E94720BFE0101900020E9F736
:100BF000319780E290E59183808381E690E0938352
:100C00008283DE010D900020E9F711978CE0E3E18B
:100C1000F1E001900D928A95E1F762EE71E0CE016C
:100C20000E94720BDE010D900020E9F7119787E01A
:100C3000EFE1F1E001900D928A95E1F7CE010E947B
:100C4000260582E491E00E94580580E4FE0111929D
:100C50008A95E9F7DF91CF911F910F9108950E9436
:100C6000DA040E94480586E291E00E9458050E943D
:100C7000110184E491E00E9458050E9475052FEF50
:100C800084E39CE0215080409040E1F700C00000E8
:100C9000F4CF5058BB27AA270E9461060C94420843
:100CA0000E94340838F00E943B0820F039F49F3F3E
:100CB00019F426F40C9421080EF4E095E7FB0C944B
:100CC0001B08E92F0E94530858F3BA1762077307ED
:100CD0008407950720F079F4A6F50C9475080EF4B6
:100CE000E0950B2EBA2FA02D0B01B90190010C013C
:100CF000CA01A0011124FF27591B99F0593F50F454
:100D0000503E68F11A16F040A22F232F342F4427AB
:100D1000585FF3CF469537952795A795F0405395A3
:100D2000C9F77EF41F16BA0B620B730B840BBAF073
:100D30009150A1F0FF0FBB1F661F771F881FC2F7DE
:100D40000EC0BA0F621F731F841F48F487957795F2
:100D50006795B795F7959E3F08F0B0CF9395880FAC
:100D600008F09927EE0F9795879508950E94CA0677
:100D70000C9442080E943B0858F00E94340840F04E
:100D800029F45F3F29F00C941B0851110C9476084C
:100D90000C9421080E94530868F39923B1F355235A
:100DA00091F3951B550BBB27AA276217730784077E
:100DB00038F09F5F5F4F220F331F441FAA1FA9F314
:100DC00035D00E2E3AF0E0E832D091505040E69502
:100DD000001CCAF72BD0FE2F29D0660F771F881F63
:100DE000BB1F261737074807AB07B0E809F0BB0B56
:100DF000802DBF01FF2793585F4F3AF09E3F51056A
:100E000078F00C941B080C9476085F3FE4F3983E4E
:100E1000D4F3869577956795B795F7959F5FC9F752
:100E2000880F911D9695879597F90895E1E0660FD3
:100E3000771F881FBB1F621773078407BA0720F04C
:100E4000621B730B840BBA0BEE1F88F7E0950895B5
:100E5000BEE304D008F490E80895BFE322273327C7
:100E6000A9010E945B0860F19F5748F1B91740F152
:100E7000BFE3B91B9927B8503AF4660F771F881F54
:100E8000991FB395D2F316C0B8504AF0232F342FD0
:100E9000452F562F672F782F8827B850BAF7B85F9D
:100EA00049F0869577956795579547953795279596
:100EB000BA95B9F716F40E94240888940895889486
:100EC00060E070E0CB0108950E946B076894B11157
:100ED0000C94760808950E945B0888F09F5798F05C
:100EE000B92F9927B751B0F0E1F0660F771F881F2F
:100EF000991F1AF0BA95C9F714C0B13091F00E9449
:100F00007508B1E008950C947508672F782F88272D
:100F1000B85F39F0B93FCCF3869577956795B3956F
:100F2000D9F73EF490958095709561957F4F8F4FDE
:100F30009F4F089597FB16F40E9424080C94DE0737
:100F4000E89409C097FB3EF4909580957095619563
:100F50007F4F8F4F9F4F9923A9F0F92F96E9BB2719
:100F60009395F695879577956795B795F111F8CF95
:100F7000FAF4BB0F11F460FF1BC06F5F7F4F8F4F00
:100F80009F4F16C0882311F096E911C0772321F0F6
:100F90009EE8872F762F05C0662371F096E8862F8E
:100FA00070E060E02AF09A95660F771F881FDAF7E5
:100FB000880F9695879597F90895E894F92F96EB01
:100FC000FF2381F0121613061406440B9395F69531
:100FD00087957795679557954040FF23B9F71BC0D4
:100FE00099270895882351F49850D2F7872B762FAC
:100FF000652F542F432F322F20E0B1F31216130622
:101000001406440B88233AF09A95440F551F661F27
:10101000771F881FCAF755234AF4440F551F11F450
:1010200060FF04C06F5F7F4F8F4F9F4F880F969573
:10103000879597F9089597F99F6780E870E060E0D9
:1010400008959FEF80EC0895909580957095609538
:1010500050954095309521953F4F4F4F5F4F6F4FC3
:101060007F4F8F4F9F4F089500240A94161617063E
:1010700018060906089500240A9412161306140689
:1010800005060895092E0394000C11F4882352F0EC
:10109000BB0F40F4BF2B11F460FF04C06F5F7F4FA4
:1010A0008F4F9F4F089557FD9058440F551F59F08B
:1010B0005F3F71F04795880F97FB991F61F09F3F45
:1010C00079F087950895121613061406551FF2CF6E
:1010D0004695F1DF08C0161617061806991FF1CFBE
:1010E00086957105610508940895E894BB276627E5
:1010F0007727CB0197F908950E948F080C94420836
:101100000E94340838F00E943B0820F0952311F02B
:101110000C941B080C94210811240C9476080E944E
:10112000530870F3959FC1F3950F50E0551F629FD0
:10113000F001729FBB27F00DB11D639FAA27F00D30
:10114000B11DAA1F649F6627B00DA11D661F829F57
:101150002227B00DA11D621F739FB00DA11D621F3C
:10116000839FA00D611D221F749F3327A00D611D59
:10117000231F849F600D211D822F762F6A2F11243B
:101180009F5750409AF0F1F088234AF0EE0FFF1F6E
:10119000BB1F661F771F881F91505040A9F79E3FC5
:1011A000510580F00C941B080C9476085F3FE4F323
:1011B000983ED4F3869577956795B795F795E7951B
:1011C0009F5FC1F7FE2B880F911D9695879597F924
:1011D0000895FA01EE0FFF1F309621053105A1F1A8
:1011E0006115710561F48038BFE39B0749F168948C
:1011F0009038810561F08038BFEF9B0741F099235B
:101200004AF5FF3FE1053105210519F1E8940894FD
:10121000E795D901AA2329F4AB2FBE2FF85FD0F3AD
:1012200010C0FF5F70F4A695E0F7F73950F019F0A1
:10123000FF3A38F49F779F930DD00F9007FC90589A
:10124000089546F00C94210860E070E080E89FE388
:1012500008954FE79F775F934F933F932F930E949B
:10126000E4092F913F914F915F910E947C080C946B
:10127000410929F416F00C941B080C9475080C9481
:1012800021080E945B08A8F39638A0F707F80F9290
:10129000E8942BE33AEA48EB5FE70E9492080F924A
:1012A0000F920F924DB75EB70F920E942C0AE8E69C
:1012B000F0E00E9473094F915F91EF91FF91E595E6
:1012C000EE1FFF1F49F0FE57E0684427EE0F441F52
:1012D000FA95E1F74195550B0E94A6090F9007FE7C
:1012E0000C949A090895DF93CF931F930F93FF9265
:1012F000EF92DF927B018C01689406C0DA2EEF0139
:101300000E948F08FE01E894A591259135914591A1
:101310005591A6F3EF010E946106FE019701A80115
:10132000DA9469F7DF90EF90FF900F911F91CF91C2
:10133000DF9108959B01AC0160E070E080E89FE3DD
:101340000C94B6060C941B080C94600A0E945B086F
:10135000D8F39923C9F3940F511DA3F39150504032
:1013600094F059F0882332F0660F771F881F915050
:101370005040C1F79E3F51052CF7880F911D96955F
:10138000879597F908955F3FACF0983E9CF0BB2796
:10139000869577956795B79508F4B1609395C1F7F1
:1013A000BB0F58F711F460FFE8CF6F5F7F4F8F4F8F
:1013B0009F4FE3CF0C94760816F00C94600A0C94BF
:1013C000210868940C941B080E945B08A8F39923D9
:1013D000C1F3AEF3DF93CF931F930F93FF92C92F07
:1013E000DD2788232AF02197660F771F881FDAF7F9
:1013F00020E030E040E85FEB9FE3883920F0803E5A
:1014000038F021968F770E944A06E0E9F0E004C0A8
:101410000E944A06EDEBF0E00E9473098B01BE01C9
:10142000EC01FB2E6F5771097595771F880B990B8F
:101430000E94A20728E132E741E35FE30E948F08A0
:10144000AF2D9801AE01FF900F911F91CF91DF91C9
:101450000E9461060C944208FA01DC01AA0FBB1F2E
:101460009B01AC01BF5728F422273327442750782B
:1014700020C0B75190F4AB2F00244695379527959F
:10148000011CA395D2F3002071F0220F331F441FDB
:10149000B395DAF30ED00C94490661307105A0E8DB
:1014A0008A07B94630F49B01AC0166277727882765
:1014B0009078309621F020833183428353830895BE
:1014C0009F3F31F0915020F4879577956795B795B8
:1014D000880F911D9695879597F90895DB018F9355
:1014E0009F930E947E0ABF91AF91A29F800D911D94
:1014F000A39F900DB29F900D112408950E94430B5D
:10150000A59F900DB49F900DA49F800D911D112457
:101510000895DF93CF931F930F939A9DF02D219FF2
:10152000F00D8B9DF00D8A9DE02DF10D039FF00DC8
:10153000029FE00DF11D4E9DE00DF11D5E9DF00D31
:101540004F9DF00D7F936F93BF92AF925F934F9338
:10155000D5010E94430B8B01AC01D7010E94430BC4
:10156000EB01E80FF91FD6010E94D90A2F913F9194
:10157000D6010E94430BC60FD71FE81FF91FAF917A
:10158000BF910E94D90A2F913F910E94430BC60F31
:10159000D71FE81FF91FD6010E94430BE60FF71F64
:1015A0009801BE01CF0111240F911F91CF91DF91BE
:1015B00008950E94430B460F571FC81FD91F08F4F8
:1015C000319608950F93083090F0982F872F762F3B
:1015D000652F542F432F322F22270850F4CF220F8C
:1015E000331F441F551F661F771F881F991F0A95B9
:1015F000B2F70F91089597FB10F8169400080F9317
:10160000083098F00850232F342F452F562F672F7E
:10161000782F892F902DF4CF0594979587957795FE
:10162000679557954795379527950A95AAF70F918E
:1016300008952A0D3B1D4C1D5D1D6E1D7F1D801FD5
:10164000911F08950024A7FD00942A0F301D401D0E
:10165000501D601D701D801D901D08952A193B09A5
:101660004C095D096E097F09800B910B08950024D8
:10167000A7FD00942A173005400550056005700548
:10168000800590050895A29FB001B39FC001A39F5C
:10169000700D811D1124911DB29F700D811D1124AB
:1016A000911D0895EF920F931F93CF93DF93E8015D
:1016B00047FD02C034E001C034E1042E000C550B9C
:1016C00057FF03C0519541955109E32E022F242F56
:1016D000AE010E947D0BCE01DF91CF911F910F9142
:1016E000EF900895FB01DC010D900020E9F71197C0
:1016F00001900D920020E1F70895A9E0B0E0E3E841
:10170000FBE00C94B50D6A01122FB02E2BE32017CD
:1017100020F0FF24F394F00E02C02CE3F22E0F2DE4
:1017200027E0AE014F5F5F4F0E94D70CBC0149819B
:10173000842F8970813031F0E1FC06C0E0FE06C0E4
:1017400090E205C09DE203C09BE201C090E05E2DE7
:10175000507143FF3CC0911102C083E001C084E09E
:10176000811718F4212F281B01C020E051110BC054
:10177000F601822F30E2882319F031938150FBCF9C
:10178000C20ED11C20E0992329F0D6019C93F601CA
:1017900031966F01C6010396E2FE0AC03EE4D6010F
:1017A0003C9341E411964C93119712963C9306C0DA
:1017B0003EE6F601308341E641833283FC01322F5D
:1017C00040E2332309F442C041933150FACF42FF43
:1017D00044C0911102C083E001C084E0811718F475
:1017E000212F281B01C020E051110BC0F601822FD0
:1017F00030E2882319F031938150FBCFC20ED11C07
:1018000020E0992329F0D6019C93F60131966F01CF
:10181000C6010396E2FE0BC039E4D6013C933EE4D8
:1018200011963C93119736E412963C9307C039E623
:10183000F60130833EE6318336E63283FC01322FF7
:1018400040E2332319F041933150FBCFFC01E20F0A
:10185000F11D10828EEF9FEFA6C021E030E09111C4
:1018600002C020E030E0161617061CF4FB0131968A
:1018700002C0E1E0F0E02E0F3F1FBB2021F0EB2D76
:10188000F0E0319602C0E0E0F0E02E0F3F1FE12FC4
:10189000F0E02E173F071CF4121B212F01C020E09F
:1018A0008E2D887159F4F601822F30E2882319F0C9
:1018B00031938150FBCFC20ED11C20E0992329F037
:1018C000D6019C93F60131966F0151110BC0F601C0
:1018D000822F90E3882319F091938150FBCFC20EA1
:1018E000D11C20E00F2D060F9A81342F307144FF58
:1018F00003C0913309F40150101624F4093018F094
:1019000008E001C001E0AB0177FF02C040E050E019
:10191000FB01E41BF50BA1E0B0E0AC0FBD1FEA0F2B
:10192000FB1F8EE2A82E4B01801A91080B2D10E0B0
:101930001195019511094F3FBFEF5B0721F4D601C7
:10194000AC9211966D01641775072CF084169506FC
:1019500014F4818101C080E3415051093196D601D0
:1019600011967D014017510724F0D6018C93670131
:10197000E2CF6417750739F4963320F4953319F4E0
:10198000311101C081E3F6018083F701822F90E2DB
:10199000882319F091938150FBCFF701E20FF11DDD
:1019A000108280E090E02996ECE00C94D10D283074
:1019B00008F027E03327DA01990F311D87FD916088
:1019C00000966105710539F432602E5F3D9330E376
:1019D0002A95E1F708959F3F30F080387105610541
:1019E00009F03C5F3C5F3D93913008F08068911DA9
:1019F000DF93CF931F930F93FF92EF92192F987F4E
:101A00009695E92F96959695E90FFF27EC5BFE4F8B
:101A100099273327EE24FF24A701E70105900894B6
:101A2000079428F4360FE71EF81E491F511D660F54
:101A3000771F881F991F0694A1F70590079428F433
:101A4000E70EF81E491F561FC11D770F881F991FEB
:101A5000661F0694A1F70590079428F4F80E491F15
:101A6000561FC71FD11D880F991F661F771F069429
:101A7000A1F70590079420F4490F561FC71FD81FE0
:101A8000990F661F771F881F0694A9F784911095F8
:101A9000177041F0D695C79557954795F794E794F9
:101AA0001A95C1F7EAEEF0E068941590159135911A
:101AB0006591959105907FE27395E118F10A430BCA
:101AC000560BC90BD009C0F7E10CF11E431F561F7E
:101AD000C91FD01D7EF4703311F48A95E6CFE894C7
:101AE000015030F0080F0AF40027021708F4202FE5
:101AF0002395022F7A3328F079E37D932A95E9F72D
:101B000010C07D932A9589F6069497956795379529
:101B100017951794E118F10A430B560BC90BD0091E
:101B200098F023957E9173957A3308F070E37C9357
:101B30002013B8F77E9170617D9330F0839571E347
:101B40007D9370E32A95E1F71124EF90FF900F91B8
:101B50001F91CF91DF91992787FD909508952F923E
:101B60003F924F925F926F927F928F929F92AF922D
:101B7000BF92CF92DF92EF92FF920F931F93CF937A
:101B8000DF93CDB7DEB7CA1BDB0B0FB6F894DEBF11
:101B90000FBECDBF09942A88398848885F846E8437
:101BA0007D848C849B84AA84B984C884DF80EE8081
:101BB000FD800C811B81AA81B981CE0FD11D0FB68A
:101BC000F894DEBF0FBECDBFED010895F894FFCFAE
:101BD0002054656D703A20002050726573737572E1
:101BE000653A0020416C7469747564653A20002080
:101BF0006D65746572005465737420626D70313860
:101C0000302073656E736F722E2077616974202E99
:101C10002E2E0A0053656E736F72206973207265F1
:061C20006164790A000076
:00000001FF
